:020000040800F2
:10000000E80400207D010008EB040008E304000878
:10001000E7040008DD040008E50700080000000010
:10002000000000000000000000000000EF040008D5
:10003000E104000800000000ED040008F1040008DD
:100040009701000897010008970100089701000830
:100050009701000897010008970100089701000820
:100060009701000897010008970100089701000810
:100070009701000897010008970100089701000800
:100080009701000897010008000000009701000890
:1000900097010008970100089701000897010008E0
:1000A00097010008970100089701000889050008DA
:1000B00099060008000000009701000800000000F9
:1000C0009701000800000000970100089701000850
:1000D0009701000897010008970100080000000040
:1000E00000000000000000009701000897010008D0
:1000F0009701000897010008970100089701000880
:1001000097010008000000000000000097010008AF
:1001100000000000000000000000000000000000DF
:1001200000000000000000000000000000000000CF
:1001300000000000000000000000000000000000BF
:1001400000000000000000000000000000000000AF
:10015000000000000000000097010008970100085F
:100160009701000897010008DFF80CD000F06AF84A
:1001700000480047F5140008E804002006488047BE
:1001800006480047FEE7FEE7FEE7FEE7FEE7FEE77C
:10019000FEE7FEE7FEE7FEE701050008690100084B
:1001A00010B5431A934209D28318881803E010F857
:1001B000011D03F8011D521EF9D210BD40EA0103D2
:1001C0009B0703D009E008C9121F08C0042AFAD20D
:1001D00003E011F8013B00F8013B521EF9D210BDBB
:1001E0002DE9F05F0546002092469B46884606466C
:1001F000814640241BE0284641464746224600F0FF
:1002000042F853465A46C01A914110D31146184637
:10021000224600F029F82D1A67EB01084F462246C6
:100220000120002100F020F817EB00094E41201EAC
:10023000A4F10104DFDC484631462A464346BDE8C6
:10024000F09F0000064C074D06E0E06840F0010317
:1002500094E8070098471034AC42F6D3FFF788FFC4
:10026000B8220008D8220008202A04DB203A00FA2D
:1002700002F1002070479140C2F1200320FA03F3FD
:10028000194390407047202A04DB203A21FA02F0FB
:100290000021704721FA02F3D040C2F120029140C0
:1002A00008431946704710B501F0B2FE00F0E4FDB6
:1002B00000F0E2FE10BD000010B516221146024803
:1002C00000F04AFF10BD00000054004010B50A22A3
:1002D0001621024800F040FF10BD0000005400400D
:1002E00010B517221621024800F036FF10BD00009D
:1002F0000054004010B518221621024800F02CFFCF
:1003000010BD00000054004010B510221621024814
:1003100000F022FF10BD00000054004010B50F2275
:100320001621024800F018FF10BD000000540040E4
:1003300070B54FF0FF34012510E00D2216210B4857
:1003400000F00AFF0446002C03DB642C01DC20468D
:1003500070BD214606A000F047FA6D1C0A2DECDDA9
:100360000CA000F041FA4FF0FF30F1E700540040DC
:100370005B534F435D20496E76616C69643A20257A
:10038000642C207265747279696E672E2E2E0D0AA8
:10039000000000005B534F435D204661696C65645B
:1003A00020616674657220313020617474656D70EF
:1003B00074730D0A0000000070B54FF0FF34012582
:1003C0000EE0082216210A4800F0C6FE0446002C62
:1003D00001DD204670BD214606A000F005FA6D1C27
:1003E0000A2DEEDD0CA000F0FFF94FF0FF30F1E731
:1003F000005400405B54454D505D20496E76616C61
:1004000069643A2025642C207265747279696E677C
:100410002E2E2E0D0A0000005B54454D505D2046E7
:1004200061696C6564206166746572203130206199
:100430007474656D7074730D0A00000010B513229A
:100440001621024800F088FE10BD00000054004054
:1004500070B54FF0FF34012511E0092216210C4838
:1004600000F07AFE0446002C04DDB4F5803F01DA8A
:10047000204670BD214607A000F0B6F96D1C0A2D7C
:10048000EBDD0DA000F0B0F94FF0FF30F1E7000018
:10049000005400405B564F4C5D20496E76616C699C
:1004A000643A2025642C207265747279696E672E17
:1004B0002E2E0D0A000000005B564F4C5D20466159
:1004C000696C6564206166746572203130206174E6
:1004D00074656D7074730D0A0000000000BFFEE7C4
:1004E000704700BFFEE700BFFEE7704770477047E8
:1004F00002480068401C0149086070470C00002059
:1005000010B51D48006840F001001B49086000BF9D
:100510001948006800F002000028F9D01648406829
:100520001649084014494860084640681449084084
:10053000114948600846406820F440004860084679
:100540000068104908400C4908600846C06A20F05D
:100550000F00C8620846006B40F243118843064909
:1005600008630846406B20F0010048630020886063
:1005700001F0C2FD10BD0000001002400C00FF0899
:10058000FFFFC277FFFFF2FE10B53349334801F099
:100590004DFE00285ED0314801F0F0FDC4B2304875
:1005A0000088062800DB10BD2D490888411C2C4A14
:1005B00011802C490C5410460088012809D10846A6
:1005C0000078AA2805D00020114608802649086036
:1005D000E9E723480088022819D1224840785528A5
:1005E00015D020480078AA280BD11E484078AA28A8
:1005F00007D11C4840781B49087001201849088021
:1006000004E000201649088017490860CBE7144829
:10061000008806281DD10521104801F0EDFD114884
:100620004079FF2809D111480E490A68026089887B
:10063000818001200E49087002E00EA000F0D4F87D
:10064000002007490880084908600521034801F097
:10065000E0FD00BF00BFA6E7050005070038014028
:100660001E000020D80000202000002018000020DC
:1006700000000020496E76616C696420656E64201C
:10068000627974653A2045787065637465642030DA
:100690007846460A0000000010B53B493B4801F08F
:1006A000C5FD00286ED0394801F068FDC4B2384855
:1006B0000088182800DB10BD35490888411C344AE1
:1006C000118034490C541046008801282FDB104655
:1006D0000088022813D108460078AA280FD00846BF
:1006E0004078AA280BD110460088421E491C481E9B
:1006F000FFF756FD26480088401E254908802448FB
:100700000088022813DB2448006880B9214800785B
:10071000AA2807D11F484078AA2803D101201E49E2
:10072000086004E000201A4908801B490860184846
:100730000088182825D10521144801F05DFD1648D0
:100740000068012811D11348C07DFF2809D1142267
:100750001049891C1148FFF723FD0120104908604A
:1007600006E010A000F040F802E017A000F03CF80E
:10077000002007490880084908600521034801F066
:1007800048FD00BF00BF96E7050005070044004094
:1007900010000020A400002014000020C40000204D
:1007A00002000020496E76616C696420656E6420E9
:1007B000627974653A2045787065637465642030A9
:1007C0007846460A000000004D6573736167652036
:1007D000626567696E206E6F74206465746563740A
:1007E00065640A0000BFFEE70FB4054B10B503A90E
:1007F000044A029800F018F810BC5DF814FB0000E1
:10080000D50D0008A000002002E008C8121F08C192
:10081000002AFAD170477047002001E001C1121F81
:10082000002AFBD1704700002DE9FF4F8DB00F4625
:100830000546002606E025280BD0DDE90F1290477B
:100840006D1C761C28780028F5D111B03046BDE823
:10085000F08F0024A246A1460122EC4900E00443A7
:1008600015F8013F203B02FA03F00842F7D128783F
:100870002A2810D06FF02F022878A0F13001092922
:1008800014D80AEB8A0102EB410144F0020400EBA8
:10089000010A6D1CF0E701CF5FEA000A03D544F4BA
:1008A0000054CAF1000A44F002046D1C28782E2876
:1008B00017D115F8010F44F004042A280ED06FF068
:1008C0002F022878A0F1300109290AD809EB890103
:1008D00002EB410100EB01096D1CF2E757F8049BA4
:1008E0006D1C28786C280FD006DC4C2817D068289F
:1008F0000DD06A2814D104E0742810D07A280FD1C2
:100900000DE044F400140AE044F4801401E044F4DF
:1009100040146978814202D104F580146D1C6D1C6D
:100920002A786E2A1FD00CDC632A31D004DC002A1E
:100930008BD0582A11D1A3E0642A68D0692A0CD13F
:1009400065E0732A2ED004DC6F2A73D0702A04D19C
:100950009BE0752A6FD0782A6ED01046DDE90F1221
:100960009047761C50E1C4F30250022806D00328B9
:1009700009D0042801CF09D0066045E101CFF11765
:10098000C0E9006140E101CF06803DE106703BE136
:1009900017F8040B8DF8000000208DF80100EB46DD
:1009A000012003E057F804BB4FF0FF3061074FF020
:1009B000000102D40DE008F10101884649450FDA33
:1009C0008045F8DB1BF808100029F4D108E008F195
:1009D000010188468142FADB1BF808100029F6D194
:1009E000DDE90F23AAEB08008146214600F036F925
:1009F000304400EB080604E0DDE90F121BF8010BA0
:100A00009047B8F10108F7D221464846F7E00A219D
:100A1000C4F302534FF0000B0891022B04D001CF16
:100A2000C117032B09D00AE0FF1D27F00707F7E8DD
:100A3000020108E032E01FE020E000B2C117042B01
:100A400001D140B2C117031E71F1000307DA4FF064
:100A5000000CD0EB0C006CEB01012D2302E0230510
:100A600004D52B238DF82430012303E0E30701D0C4
:100A70002023F7E7984658E00A2110E010210EE005
:100A800010204FF0000B08900CE010214FF0000BED
:100A900044F004044FF00809089103E008214FF0E6
:100AA000000B0891C4F30253022B04D001CF0021A4
:100AB000032B06D006E0FF1D27F00707F7E8020129
:100AC00003E080B2042B00D1C0B24FF0000823072E
:100AD0002BD5702A07D0DDF820C08CF0100C5CEA12
:100AE0000B0C05D00EE040238DF82430012308E0E4
:100AF00050EA010306D030238DF824308DF82520EC
:100B000002239846DDF820C08CF0080C5CEA0B0C40
:100B10000BD150EA010301D1630706D530238DF8CC
:100B200024304FF00108A9F10109582A04D038A255
:100B30000B9208AA0A920BE03AA2F9E75B46089AE0
:100B4000FFF74EFB0B9B9B5C0A9A521E0A92137096
:100B500050EA0102F2D10A98ADEB000000F1200B3F
:100B6000600702D524F4803401E04FF00109D94533
:100B700002DDA9EB0B0000E0002000EB0B0141447B
:100B80000890AAEB010AE00306D4DDE90F23214611
:100B9000504600F063F806444FF0000908E009A948
:100BA00011F80900DDE90F12904709F10109761CDF
:100BB000C145F4DBE0030CD5DDE90F2321465046A7
:100BC00000F04CF8064404E0DDE90F1230209047B5
:100BD000761C0899481E08900029F5DC08E00A9860
:100BE0000A990078491C0A91DDE90F129047761C9A
:100BF000BBF10001ABF1010BF1DC21465046DDE910
:100C00000F2300F019F806446D1C1BE609280100AB
:100C10003031323334353637383961626364656672
:100C20000000000030313233343536373839414234
:100C300043444546000000002DE9F04104460025EC
:100C40001E461746880404D405E039462020B047E4
:100C50006D1C641EF9D52846BDE8F0812DE9F041F0
:100C6000044600251E469046C80301D5302700E003
:100C70002027880404D505E041463846B0476D1C5E
:100C8000641EF9D52846BDE8F08110B502460B4632
:100C90000024002103E0505C0444481C81B29942C6
:100CA000F9DBE0B210BD000010B540F2115001F0C8
:100CB000B9F940F20E6001F0B5F94FF4007201216C
:100CC0004FF0904000F0A0F84FF4806201214FF007
:100CD000904000F099F84FF40073012202214FF088
:100CE000904000F0F5F84FF40073012200214FF01E
:100CF000904000F01CF94FF48063012202214FF074
:100D0000904000F0E5F84FF48063012200214FF09D
:100D1000904000F00CF90C4801F03AFA4FF4E13140
:100D2000094801F0EDF90821074801F0BCFA042157
:100D3000054801F097FA0521034801F06AFA0248D4
:100D400001F046FA10BD00000038014010B540F235
:100D5000115001F067F940F2117001F063F94FF49E
:100D6000004201214FF0904000F04EF84FF4004354
:100D7000012202214FF0904000F0AAF84FF4004306
:100D8000012200214FF0904000F0D1F80B4801F013
:100D9000FFF94FF4E131094801F0B2F908210748A1
:100DA00001F081FA0421054801F05CFA05210348AD
:100DB00001F02FFA014801F00BFA10BD0044004089
:100DC0004FF47A7200FB02F100BF0A1EA1F101018B
:100DD000FBD1704770B504460D46E1B2064801F0FC
:100DE000D2F900BF40F20771034801F0F6F900287C
:100DF000F8D0204670BD000000380140014800686E
:100E0000704700000C000020F0B503461C6A5D6AC4
:100E100000200DE00126864016403EB187000F26D7
:100E2000BE40B443860001FA06F63443461CB0B215
:100E30000828EFD3082011E00126864016405EB155
:100E4000A0F10806B7000F26BE40B543A0F1080682
:100E5000B60001FA06F63543461CB0B21028EBD3B3
:100E60001C625D62F0BD81627047816170470AB1AA
:100E7000816100E08162704710B54FF480720121FA
:100E80001248FFF7C1FF4FF4007201210F48FFF72E
:100E9000BBFF4FF48073012202210C4800F018F8C8
:100EA0004FF4807303220121084800F040F84FF40A
:100EB000007301220221054800F00AF84FF4007384
:100EC00003220121014800F032F810BD000400485F
:100ED000F0B504460D4616462168E268002019E088
:100EE000012787401F409FB14FEA400C032707FAB4
:100EF0000CF7B943470005FA07F739434FEA400CAE
:100F0000032707FA0CF7BA43470006FA07F73A43F4
:100F1000471CB8B21028E3D32160E260F0BD02465E
:100F20005069084008B1012070470020FCE7F0B587
:100F30000C461546012C03D146681E43466002E06C
:100F400046689E434660826800210DE001268E407F
:100F50001E403EB14F000326BE40B2434E0005FA8C
:100F600006F632434E1CB1B21029EFD38260F0BDB9
:100F7000012904D1026842F48062026003E0026841
:100F800022F480620260704721B9026842F4006274
:100F9000026003E0026822F4006202607047000011
:100FA0002DE9F05F04460E469346022000F0DCFE79
:100FB00007462E48B7FBF0F8B8F13F0F01D34FF0CA
:100FC0003F08D4F804A02AF03F0A4AEA080AC4F805
:100FD00004A02748864218D82448B7FBF0F000F157
:100FE0000109B9F13F0F02D33F20206201E0C4F8AC
:100FF00020907000B7FBF0F5042D00D20425E069C5
:10100000C5F30B010843E0612EE01A4886422BD855
:101010004FF4967008FB00F04FF47A71B0FBF1F0DA
:10102000401C2062BBF1000F08D106EB4600B7FB65
:10103000F0F5E06920F48040E06109E006EBC600CD
:1010400000EB0610B7FBF0F5E06940F48040E0618A
:10105000C5F30B0008B945F00105E06940F4004014
:10106000E061E0692843E061BDE8F09F40420F0085
:10107000A0860100801A060010B5084800F01AF892
:10108000002207490548FFF78BFF044800F032F8BB
:1010900001210248FFF76CFF10BD00000054004022
:1010A000A086010001460869C0B27047CAB2026159
:1010B0007047000010B504460D48204418B1B0F543
:1010C000806F12D108E040F2154000F0CBFF40F2F3
:1010D000154000F0B7FF09E040F2164000F0C2FFF3
:1010E00040F2164000F0AEFF00E000BF00BF10BDB0
:1010F00000ACFFBF016841F00101016070470229A7
:1011000002D14269826902E042698A4342617047C2
:1011100030B502460023002001F00043B3F1004F38
:1011200007D194698DB22C400CB1012008E0002059
:1011300006E054698DB22C400CB1012000E0002083
:1011400030BD12F1020F02D121F0010101E041F0A6
:1011500001010161704700002DE9F047054688460E
:1011600016464FF00009CA4642F2107400BF80498B
:101170002846FFF7CDFF10B1601E041EF7D1002CEA
:1011800003DC7CA0FFF730FBD6E0284600F0A8F98E
:1011900042F2107400BF01212846FFF7B9FF10B9D1
:1011A000601E041EF7D1002C03DC79A0FFF71CFBA6
:1011B000C2E06FF0010241462846FFF7C2FF42F24B
:1011C000107400BF02212846FFF7A2FF10B9601E6D
:1011D000041EF7D1002C04DC414675A0FFF704FB88
:1011E000AAE002212846FFF78AFF42F2107400BFEE
:1011F00080212846FFF78CFF10B9601E041EF7D12E
:10120000002C03DC73A0FFF7EFFA95E03146284687
:10121000FFF74CFF42F2107400BF80212846FFF711
:1012200077FF10B9601E041EF7D1002C03DC73A0F9
:10123000FFF7DAFA80E0284600F052F942F2107423
:1012400000BF01212846FFF763FF10B9601E041E8E
:10125000F7D1002C03DC73A0FFF7C6FA6CE0012283
:1012600041462846FFF76DFF42F2107400BF02218D
:101270002846FFF74DFF10B9601E041EF7D1002C61
:1012800004DC41466FA0FFF7AFFA55E00221284683
:10129000FFF735FF01212846FFF76AFE42F210747E
:1012A00000BF40212846FFF733FF10B9601E041E1F
:1012B000F7D1002C03DC6BA0FFF796FA3CE0284640
:1012C000FFF7F0FE824600212846FFF751FE284630
:1012D00000F00BF942F2107400BF40212846FFF7DE
:1012E00017FF10B9601E041EF7D1002C03DC65A0A7
:1012F000FFF77AFA20E02846FFF7D4FE814642F253
:10130000107400BF286800F4007010B1601E041E45
:10131000F8D1002C03DC63A0FFF766FA0CE0012192
:101320002846FFF725FE01212846FFF72DFE4AEA51
:1013300009273846BDE8F087284600F0D6F842F283
:10134000107400BF286800F4007010B1601E041E05
:10135000F8D101212846FFF70BFE01212846FFF7AF
:1013600013FE314655A0FFF73FFA4FF0FF30E1E79B
:10137000020000805B4932435D20425553204255B4
:1013800053592074696D656F75740D0A0000000073
:101390005B4932435D20535441525420636F6E6465
:1013A0006974696F6E2074696D656F75740D0A00DC
:1013B0005B4932435D2057524954452041444452D1
:1013C000204E41434B2028307825303258290D0AD1
:1013D000000000005B4932435D205442452074699F
:1013E0006D656F7574206265666F72652073656EDA
:1013F00064696E67207265670D0A00005B493243BD
:101400005D205442452074696D656F757420616676
:101410007465722073656E64696E67207265670D0E
:101420000A0000005B4932435D20526570656174BB
:1014300065642053544152542074696D656F75740E
:101440000D0A00005B4932435D2052454144204172
:10145000444452204E41434B2028307825303258A6
:10146000290D0A005B4932435D2052424E452074EB
:10147000696D656F757420283173742062797465A5
:10148000290D0A005B4932435D2052424E452074CB
:10149000696D656F75742028326E64206279746599
:1014A000290D0A005B4932435D2053544F5020748C
:1014B000696D656F75740D0A000000005B49324369
:1014C0005D2052454144204641494C4544206174C9
:1014D00020726567203078253032580D0A000000F0
:1014E000016841F4807101607047016841F4007146
:1014F00001607047002211461B2000F05FF80022B7
:1015000011461C2000F05AF8802000F01FFC40F229
:10151000125000F087FD0423032201212048FFF729
:10152000D7FC04211E48FFF79EFC40F2135000F048
:1015300079FD4FF40053032201211A48FFF7C8FC3C
:101540004FF400511748FFF78EFCFFF7ADFBFFF794
:10155000FDFB00F06DFAFEF7A6FE20E012480078D1
:1015600020B100F00BFB00200F4908700F480078F5
:1015700038B10F48007820B100F046FA00200B493E
:101580000870FFF73BFC0B4908600B48007830B14E
:1015900000F066F800F0C2F8002007490870DDE7A7
:1015A000000400480008004800000020010000205E
:1015B000030000200400002002000020F0B50B46CC
:1015C000002100240025244E366806F4E066B6F5B6
:1015D000E06F02D100BF042526E01F4E366806F4F6
:1015E000E066B6F5C06F02D1012403251CE01A4E57
:1015F000366806F4E066B6F5A06F02D10224022533
:1016000012E0154E366806F4E066B6F5806F02D13A
:101610000324012508E0104E366806F4E066B6F5AE
:10162000407F01D104240025C4F1040603FA06F129
:10163000C5F104070F26FE40164031430901074E4D
:10164000315400F01F070126BE404711BF0007F1CB
:10165000E027C7F80061F0BD0CED00E000E400E019
:101660002DE9F04F91B000241520009018254FEA85
:10167000152AAB46AA222146641C01A842542146E1
:10168000641C42542146641C42542146641C00F8E8
:1016900001A02146641C00F801B0FE222146641C12
:1016A000425480222146641C4254002708E0194815
:1016B000C25D2046611C8CB201A90A54781CC7B2D5
:1016C000142FF4DB0326A01B1FFA80F901A9881947
:1016D0004946FFF7DAFA80462046611C8CB201A920
:1016E00001F80080FF222046611C8CB201A90A5437
:1016F0002046611C8CB201A90A542046611C8CB2A0
:1017000001A90A54E2B2044800F0B4FD11B0BDE8EA
:10171000F08F0000C4000020003801402DE9F04F98
:10172000A3B0002400200890FEF7DAFD0790FEF732
:10173000EBFD0690FEF7DEFD0590FEF7EFFD049051
:10174000FEF7BAFD0746FEF779FE8246FEF734FE45
:101750000390FEF77DFE0290FEF7B8FD0190002F8A
:101760002FDB1FFA87FB0BF01000B0B1A348007805
:1017700008B9012000E00020A04908700846007860
:1017800028B14FF400519E48FFF76FFB18E04FF46B
:1017900000519B48FFF767FB12E00BF0200038B1C7
:1017A00001209649087041039548FFF75EFB07E06A
:1017B0000020924908704FF400519148FFF753FB05
:1017C00007E000208D4908704FF400518C48FFF766
:1017D0004AFB132008900898C51C4FEA15292E468D
:1017E000AA222046611C8CB20BA90A542046611C17
:1017F0008CB20BA90A542046611C8CB20BA90A5466
:101800002046611C8CB20BA901F800903546204699
:10181000611C8CB20BA90E54FE222046611C8CB2B6
:101820000BA90A5481222046611C8CB20BA90A54D0
:1018300000BF0799002902DA4FF6FF7001E007990F
:1018400088B2030A2146621C94B20BAA5354214663
:10185000621C94B20BAA505400BF00BF0699002925
:1018600002DA4FF6FF7001E0069988B2030A2146BA
:10187000621C94B20BAA53542146621C94B20BAA68
:10188000505400BF00BF0599002902DA4FF6FF70DF
:1018900001E0059988B2030A2146621C94B20BAAA2
:1018A00053542146621C94B20BAA505400BF00BF8F
:1018B0000499002902DA4FF6FF7001E0049988B21A
:1018C000030A2146621C94B20BAA53542146621C9F
:1018D00094B20BAA505400BF00BF002F02DA4FF69B
:1018E000FF7000E0B8B2030A2146621C94B20BAA52
:1018F00053542146621C94B20BAA505400BF00BF3F
:10190000BAF1000F02DA4FF6FF7001E01FFA8AF019
:10191000030A2146621C94B20BAA53542146621C4E
:1019200094B20BAA505400BF00BF0399002902DAF9
:101930004FF6FF7001E0039988B2030A2146621C4A
:1019400094B20BAA53542146621C94B20BAA505471
:1019500000BF00BF0299002902DA4FF6FF7001E0D4
:10196000029988B2030A2146621C94B20BAA53540E
:101970002146621C94B20BAA505400BF00BF0199CB
:10198000002902DA4FF6FF7001E0019988B2030ADC
:101990002146621C94B20BAA53542146621C94B295
:1019A0000BAA505400BF4FF00308A4EB080080B20C
:1019B00009900BA901EB08000999FFF766F90A9055
:1019C0002146621C94B20BAA0A985054FF2220466A
:1019D000611C8CB20BA90A542046611C8CB20BA965
:1019E0000A542046611C8CB20BA90A54E2B2054885
:1019F00000F040FC23B0BDE8F08F00009C00002008
:101A0000000800480038014010B514220549064876
:101A1000FEF7C6FB18220449C91E044800F02AFC40
:101A200010BD0000C40000208700002000380140E5
:101A300010B540F2115000F0F5FA01231A4619468C
:101A40004FF09040FFF744FA01231A4600214FF06F
:101A50009040FFF76CFA01214FF09040FFF703FA36
:101A60000223012211464FF09040FFF731FA022382
:101A7000012200214FF09040FFF759FA02214FF068
:101A80009040FFF7F0F91023012211464FF09040EB
:101A9000FFF71EFA1023012200214FF09040FFF7BC
:101AA00046FA10214FF09040FFF7DDF92023012284
:101AB00011464FF09040FFF70BFA2023012200213E
:101AC0004FF09040FFF733FA20214FF09040FFF79E
:101AD000CAF94023012211464FF09040FFF7F8F970
:101AE0004023012200214FF09040FFF720FA4021CF
:101AF0004FF09040FFF7B7F98023012211464FF0D5
:101B00009040FFF7E5F98023012200214FF090403B
:101B1000FFF70DFA80214FF09040FFF7A4F9012163
:101B20004FF09040FFF7A1F90A20FFF749F9802113
:101B30004FF09040FFF799F90A20FFF741F9022191
:101B40004FF09040FFF791F91920FFF739F9402144
:101B50004FF09040FFF789F90A20FFF731F9202173
:101B60004FF09040FFF781F96420FFF729F9102129
:101B70004FF09040FFF779F910BD000010B56448B0
:101B80000078AA287AD1624840785528FAD160486E
:101B90004079FF28F6D15E488078042871D007DCB0
:101BA00068B1012811D002282DD0032868D159E04E
:101BB000052879D0062876D01028F7D196E006229D
:101BC0005449554800F056FB9FE05148C07805281D
:101BD00013DA4F48C0785149C8704D48C078504A10
:101BE00052F820104FF09040FFF799F94B490871D7
:101BF0000622494800F03EFB04E0062249494648D7
:101C000000F038FB81E04248C078052824DA4048DB
:101C10000079002801DD012000E0002002463C4858
:101C2000C0783F4B53F820104FF09040FFF71FF95A
:101C30003748C0783C49C8703548C078384A52F8AF
:101C400020104FF09040FFF76AF9374908710622DB
:101C5000314800F00FFB04E0062232492E4800F024
:101C600009FB52E0142231493148FEF799FA182253
:101C70002F49C91E284800F0FDFA46E046E000E082
:101C80003DE0FEF755FB2B49086008460088000A36
:101C90002949C87027480078087106221E4800F0BC
:101CA000E9FA32E000E010E0FEF786FB2149086027
:101CB00008460088000A2149C8701E48007808714B
:101CC0000622154800F0D6FA1FE0FEF7C1FB1949BD
:101CD000086008460088000A1949C870154800784D
:101CE000087106220C4800F0C5FA0EE001201549E3
:101CF000087006221449084800F0BCFA05E00622E4
:101D00000849054800F0B6FA00BF00BF10BD00004A
:101D10001800002028000020003801402E0000207C
:101D2000700000206A00002034000020C400002061
:101D30003D00002024000020520000205800002018
:101D40005E00002003000020640000200146002007
:101D5000044A506820F0F00041EA0002014B5A604A
:101D600070470000001002402DE9F04F8FB004468C
:101D70004FF0000CE0460020002200258146CDF8FF
:101D800038900021CDF83490CDF83090CDF82C90DB
:101D90000023CDF82890CDF82490CDF8209000268F
:101DA00000270FF24C2999E8004CD9F80C90CDE9A6
:101DB00005BECDF810A0CDF81C900FF2382ADAE954
:101DC000009ACDE9029A0FF22C2ADAE9009ACDE9BD
:101DD000009ADFF82C92D9F80490C9F3810CBCF179
:101DE000000F06D0BCF1010F05D0BCF1020F3FD1AE
:101DF00003E0844A3EE0834A3CE0DFF80492D9F8ED
:101E00000490C9F38343DFF8F891D9F80490C9F33B
:101E1000C069CDF82890DDF82890B9F1000F01D005
:101E2000113300E09B1CDFF8D891D9F80490C9F376
:101E30000049CDF82490DDF82490B9F1000F12D0BC
:101E4000DFF8BC91D9F82C9009F00F0909F10109CC
:101E5000CDF82090DFF8ACA1DDF82090BAFBF9F9BD
:101E600009FB03F203E0DFF8A09103FB09F201E0B4
:101E7000644A00BF00BFDFF88891D9F80490C9F325
:101E800003160DF1100919F8067022FA07F5DFF8AC
:101E90007091D9F80490C9F302260DF1080919F8D8
:101EA000067025FA07F9CDF83890DFF85491D9F883
:101EB0000490C9F3C2261DF8067025FA07F1072C15
:101EC00072D2DFE804F00406080A0C475B001046F3
:101ED00089E0284687E00E9885E0084683E0DFF831
:101EE0002091D9F8309009F48079B9F5807F04D039
:101EF000DFF81891CDF834902AE0DFF80491D9F892
:101F00000490C9F38138B8F1000F09D0B8F1010F7E
:101F10000BD0B8F1020F0DD0B8F1030F16D110E0BD
:101F20004FEA5109CDF8349011E04FEA9109CDF80C
:101F300034900CE04FF00609B1FBF9F9CDF834907C
:101F400005E04FEAD109CDF8349000E000BF00BFB2
:101F50000D9848E0DFF8A890D9F8309009F04009D2
:101F6000B9F1400F04D048F21209CDF8309003E0E7
:101F70004FF40049CDF830900C9834E0DFF88090B1
:101F8000D9F8309009F00309B9F1000F01D10B9194
:101F900026E0DFF86C90D9F8309009F00309B9F128
:101FA000010F02D10B921BE01CE0DFF85490D9F82E
:101FB000309009F00309B9F1020F04D14FF4004940
:101FC000CDF82C900CE0DFF83890D9F8309009F07B
:101FD0000309B9F1030F03D1DFF82890CDF82C9055
:101FE0000B9800E000BF00BF0FB0BDE8F08F00000D
:101FF00000000000000000000102030406070809B9
:102000000010024000127A0000093D00809FD500B8
:1020100010B540F2125000F005F840F2157000F0D3
:1020200001F810BD064A02EB9011096800F01F0389
:1020300001229A401143024B03EB9012116070474A
:1020400000100240064A02EB9011096800F01F03DD
:1020500001229A409143024B03EB901211607047AA
:1020600000100240064A02EB9011096800F01F03BD
:1020700001229A401143024B03EB9012116070470A
:102080000010024000201B49096841F48031194AC0
:10209000116000BF1749096801F4003121B90146F8
:1020A000401CB1F5006FF5D11249096801F4003107
:1020B00001B970470F49496841F080010D4A5160EC
:1020C0001146496851601146496851601146496896
:1020D00021F0030151601146496841F0010151604E
:1020E00000BF0449496801F004010029F9D000BF8C
:1020F000DFE700000010024010B5FFF7C3FF10BD7E
:102100002DE9F04704460D460027B846B94600269B
:102110001948204438B1B0F5744F09D10620FFF7B3
:1021200023FE074605E00220FFF71EFE074600E0FB
:1021300000BF00BF206800F4004070B1780000EBE1
:102140005500B0FBF5F64FF6F07006EA0008C6F34E
:10215000420948EA0900E0600CE007EB5500B0FBDB
:10216000F5F64FF6F07006EA000806F00F0948EAA7
:102170000900E060BDE8F08700BCFFBF0146486A87
:10218000C0F308007047C1F3080282627047000084
:1021900010B504460D48204458B1B0F5744F11D124
:1021A00040F20E30FFF75EFF40F20E30FFF74AFFBD
:1021B00009E040F21140FFF755FF40F21140FFF7F0
:1021C00041FF00E000BF00BF10BD000000BCFFBF2A
:1021D000016841F001010160704710B5024602EB51
:1021E0009110006801F01F040123A340184008B1BA
:1021F000012010BD0020FCE710B5C1F38912825800
:1022000001F01F040123A3409A43C1F38913C25074
:1022100010BD10B5C1F38912825801F01F040123CB
:10222000A3401A43C1F38913C25010BD70B50246D2
:1022300000230024C1F38910105801F01F06012566
:10224000B54000EA050302EB91500068C1F3044673
:102250000125B54000EA050414B10BB1012070BDA1
:102260000020FCE7026822F00402026002680A43D0
:10227000026070472DE9F04107460D4616460024DE
:102280000DE0295D3846FFF77EFF00BF40F2077181
:102290003846FFF7A2FF0028F8D0601CC4B2B44251
:1022A000EFDBBDE8F081026822F0080202600268FC
:1022B0000A43026070470000D82200080000002096
:1022C000A4000000080800087C230008A4000020E7
:1022D000440400001808000800000000000000008E
:1022E00000000000000000000000000000000000EE
:1022F000000000000000000000000000FFFFFFFFE2
:1023000055AA000000FF55AA010000FF55AA0200CF
:1023100000FF55AA030000000000000000000000BC
:10232000000000000000000000FF55AA040000FFAC
:1023300055AA050000FF55AA060000FF55AA100087
:1023400000FF55AAFFFFFFFF010000000200000090
:1023500010000000200000004000000055AA2200EC
:10236000000000000000000000000000000000006D
:0C237000000000FF000000000000000062
:040000050800016985
:00000001FF
